{
  "_format": "hh-sol-artifact-1",
  "contractName": "Tx0x1119",
  "sourceName": "contracts/Tx0x1119.sol",
  "abi": [
    {
      "inputs": [],
      "stateMutability": "nonpayable",
      "type": "constructor"
    },
    {
      "anonymous": false,
      "inputs": [
        {
          "indexed": false,
          "internalType": "address",
          "name": "previousAdmin",
          "type": "address"
        },
        {
          "indexed": false,
          "internalType": "address",
          "name": "newAdmin",
          "type": "address"
        }
      ],
      "name": "AdminChanged",
      "type": "event"
    },
    {
      "anonymous": false,
      "inputs": [
        {
          "indexed": true,
          "internalType": "address",
          "name": "owner",
          "type": "address"
        },
        {
          "indexed": true,
          "internalType": "address",
          "name": "spender",
          "type": "address"
        },
        {
          "indexed": false,
          "internalType": "uint256",
          "name": "value",
          "type": "uint256"
        }
      ],
      "name": "Approval",
      "type": "event"
    },
    {
      "anonymous": false,
      "inputs": [
        {
          "indexed": true,
          "internalType": "address",
          "name": "beacon",
          "type": "address"
        }
      ],
      "name": "BeaconUpgraded",
      "type": "event"
    },
    {
      "anonymous": false,
      "inputs": [
        {
          "indexed": true,
          "internalType": "address",
          "name": "previousOwner",
          "type": "address"
        },
        {
          "indexed": true,
          "internalType": "address",
          "name": "newOwner",
          "type": "address"
        }
      ],
      "name": "OwnershipTransferred",
      "type": "event"
    },
    {
      "anonymous": false,
      "inputs": [
        {
          "indexed": true,
          "internalType": "address",
          "name": "from",
          "type": "address"
        },
        {
          "indexed": true,
          "internalType": "address",
          "name": "to",
          "type": "address"
        },
        {
          "indexed": false,
          "internalType": "uint256",
          "name": "value",
          "type": "uint256"
        }
      ],
      "name": "Transfer",
      "type": "event"
    },
    {
      "anonymous": false,
      "inputs": [
        {
          "indexed": true,
          "internalType": "address",
          "name": "implementation",
          "type": "address"
        }
      ],
      "name": "Upgraded",
      "type": "event"
    },
    {
      "inputs": [
        {
          "internalType": "address",
          "name": "owner",
          "type": "address"
        },
        {
          "internalType": "address",
          "name": "spender",
          "type": "address"
        }
      ],
      "name": "allowance",
      "outputs": [
        {
          "internalType": "uint256",
          "name": "",
          "type": "uint256"
        }
      ],
      "stateMutability": "view",
      "type": "function"
    },
    {
      "inputs": [
        {
          "internalType": "address",
          "name": "spender",
          "type": "address"
        },
        {
          "internalType": "uint256",
          "name": "amount",
          "type": "uint256"
        }
      ],
      "name": "approve",
      "outputs": [
        {
          "internalType": "bool",
          "name": "",
          "type": "bool"
        }
      ],
      "stateMutability": "nonpayable",
      "type": "function"
    },
    {
      "inputs": [
        {
          "internalType": "address",
          "name": "account",
          "type": "address"
        }
      ],
      "name": "balanceOf",
      "outputs": [
        {
          "internalType": "uint256",
          "name": "",
          "type": "uint256"
        }
      ],
      "stateMutability": "view",
      "type": "function"
    },
    {
      "inputs": [],
      "name": "decimals",
      "outputs": [
        {
          "internalType": "uint8",
          "name": "",
          "type": "uint8"
        }
      ],
      "stateMutability": "view",
      "type": "function"
    },
    {
      "inputs": [
        {
          "internalType": "address",
          "name": "spender",
          "type": "address"
        },
        {
          "internalType": "uint256",
          "name": "subtractedValue",
          "type": "uint256"
        }
      ],
      "name": "decreaseAllowance",
      "outputs": [
        {
          "internalType": "bool",
          "name": "",
          "type": "bool"
        }
      ],
      "stateMutability": "nonpayable",
      "type": "function"
    },
    {
      "inputs": [
        {
          "internalType": "address",
          "name": "spender",
          "type": "address"
        },
        {
          "internalType": "uint256",
          "name": "addedValue",
          "type": "uint256"
        }
      ],
      "name": "increaseAllowance",
      "outputs": [
        {
          "internalType": "bool",
          "name": "",
          "type": "bool"
        }
      ],
      "stateMutability": "nonpayable",
      "type": "function"
    },
    {
      "inputs": [],
      "name": "initialize",
      "outputs": [],
      "stateMutability": "nonpayable",
      "type": "function"
    },
    {
      "inputs": [],
      "name": "name",
      "outputs": [
        {
          "internalType": "string",
          "name": "",
          "type": "string"
        }
      ],
      "stateMutability": "view",
      "type": "function"
    },
    {
      "inputs": [],
      "name": "owner",
      "outputs": [
        {
          "internalType": "address",
          "name": "",
          "type": "address"
        }
      ],
      "stateMutability": "view",
      "type": "function"
    },
    {
      "inputs": [],
      "name": "renounceOwnership",
      "outputs": [],
      "stateMutability": "nonpayable",
      "type": "function"
    },
    {
      "inputs": [],
      "name": "symbol",
      "outputs": [
        {
          "internalType": "string",
          "name": "",
          "type": "string"
        }
      ],
      "stateMutability": "view",
      "type": "function"
    },
    {
      "inputs": [],
      "name": "totalSupply",
      "outputs": [
        {
          "internalType": "uint256",
          "name": "",
          "type": "uint256"
        }
      ],
      "stateMutability": "view",
      "type": "function"
    },
    {
      "inputs": [
        {
          "internalType": "address",
          "name": "recipient",
          "type": "address"
        },
        {
          "internalType": "uint256",
          "name": "amount",
          "type": "uint256"
        }
      ],
      "name": "transfer",
      "outputs": [
        {
          "internalType": "bool",
          "name": "",
          "type": "bool"
        }
      ],
      "stateMutability": "nonpayable",
      "type": "function"
    },
    {
      "inputs": [
        {
          "internalType": "address",
          "name": "sender",
          "type": "address"
        },
        {
          "internalType": "address",
          "name": "recipient",
          "type": "address"
        },
        {
          "internalType": "uint256",
          "name": "amount",
          "type": "uint256"
        }
      ],
      "name": "transferFrom",
      "outputs": [
        {
          "internalType": "bool",
          "name": "",
          "type": "bool"
        }
      ],
      "stateMutability": "nonpayable",
      "type": "function"
    },
    {
      "inputs": [
        {
          "internalType": "address",
          "name": "newOwner",
          "type": "address"
        }
      ],
      "name": "transferOwnership",
      "outputs": [],
      "stateMutability": "nonpayable",
      "type": "function"
    },
    {
      "inputs": [
        {
          "internalType": "address",
          "name": "newImplementation",
          "type": "address"
        }
      ],
      "name": "upgradeTo",
      "outputs": [],
      "stateMutability": "nonpayable",
      "type": "function"
    },
    {
      "inputs": [
        {
          "internalType": "address",
          "name": "newImplementation",
          "type": "address"
        },
        {
          "internalType": "bytes",
          "name": "data",
          "type": "bytes"
        }
      ],
      "name": "upgradeToAndCall",
      "outputs": [],
      "stateMutability": "payable",
      "type": "function"
    }
  ],
  "bytecode": "0x60a06040523073ffffffffffffffffffffffffffffffffffffffff1660809073ffffffffffffffffffffffffffffffffffffffff1660601b8152503480156200004757600080fd5b50600060019054906101000a900460ff16806200006f575060008054906101000a900460ff16155b620000b1576040517f08c379a0000000000000000000000000000000000000000000000000000000008152600401620000a89062000152565b60405180910390fd5b60008060019054906101000a900460ff16159050801562000102576001600060016101000a81548160ff02191690831515021790555060016000806101000a81548160ff0219169083151502179055505b8015620001245760008060016101000a81548160ff0219169083151502179055505b50620001d4565b60006200013a602e8362000174565b9150620001478262000185565b604082019050919050565b600060208201905081810360008301526200016d816200012b565b9050919050565b600082825260208201905092915050565b7f496e697469616c697a61626c653a20636f6e747261637420697320616c72656160008201527f647920696e697469616c697a6564000000000000000000000000000000000000602082015250565b60805160601c61336762000208600039600081816105de0152818161066d0152818161083901526108c801526133676000f3fe6080604052600436106100fe5760003560e01c806370a082311161009557806395d89b411161006457806395d89b4114610316578063a457c2d714610341578063a9059cbb1461037e578063dd62ed3e146103bb578063f2fde38b146103f8576100fe565b806370a0823114610280578063715018a6146102bd5780638129fc1c146102d45780638da5cb5b146102eb576100fe565b8063313ce567116100d1578063313ce567146101d35780633659cfe6146101fe57806339509351146102275780634f1ef28614610264576100fe565b806306fdde0314610103578063095ea7b31461012e57806318160ddd1461016b57806323b872dd14610196575b600080fd5b34801561010f57600080fd5b50610118610421565b6040516101259190612792565b60405180910390f35b34801561013a57600080fd5b5061015560048036038101906101509190612433565b6104b3565b6040516101629190612777565b60405180910390f35b34801561017757600080fd5b506101806104d1565b60405161018d91906129b4565b60405180910390f35b3480156101a257600080fd5b506101bd60048036038101906101b89190612390565b6104db565b6040516101ca9190612777565b60405180910390f35b3480156101df57600080fd5b506101e86105d3565b6040516101f591906129cf565b60405180910390f35b34801561020a57600080fd5b506102256004803603810190610220919061232b565b6105dc565b005b34801561023357600080fd5b5061024e60048036038101906102499190612433565b61078b565b60405161025b9190612777565b60405180910390f35b61027e600480360381019061027991906123df565b610837565b005b34801561028c57600080fd5b506102a760048036038101906102a2919061232b565b610974565b6040516102b491906129b4565b60405180910390f35b3480156102c957600080fd5b506102d26109bd565b005b3480156102e057600080fd5b506102e9610a45565b005b3480156102f757600080fd5b50610300610bcd565b60405161030d919061275c565b60405180910390f35b34801561032257600080fd5b5061032b610bf7565b6040516103389190612792565b60405180910390f35b34801561034d57600080fd5b5061036860048036038101906103639190612433565b610c89565b6040516103759190612777565b60405180910390f35b34801561038a57600080fd5b506103a560048036038101906103a09190612433565b610d74565b6040516103b29190612777565b60405180910390f35b3480156103c757600080fd5b506103e260048036038101906103dd9190612354565b610d92565b6040516103ef91906129b4565b60405180910390f35b34801561040457600080fd5b5061041f600480360381019061041a919061232b565b610e19565b005b60606036805461043090612d2a565b80601f016020809104026020016040519081016040528092919081815260200182805461045c90612d2a565b80156104a95780601f1061047e576101008083540402835291602001916104a9565b820191906000526020600020905b81548152906001019060200180831161048c57829003601f168201915b5050505050905090565b60006104c76104c0610f11565b8484610f19565b6001905092915050565b6000603554905090565b60006104e88484846110e4565b6000603460008673ffffffffffffffffffffffffffffffffffffffff1673ffffffffffffffffffffffffffffffffffffffff1681526020019081526020016000206000610533610f11565b73ffffffffffffffffffffffffffffffffffffffff1673ffffffffffffffffffffffffffffffffffffffff168152602001908152602001600020549050828110156105b3576040517f08c379a00000000000000000000000000000000000000000000000000000000081526004016105aa906128d4565b60405180910390fd5b6105c7856105bf610f11565b858403610f19565b60019150509392505050565b60006012905090565b7f000000000000000000000000000000000000000000000000000000000000000073ffffffffffffffffffffffffffffffffffffffff163073ffffffffffffffffffffffffffffffffffffffff16141561066b576040517f08c379a000000000000000000000000000000000000000000000000000000000815260040161066290612834565b60405180910390fd5b7f000000000000000000000000000000000000000000000000000000000000000073ffffffffffffffffffffffffffffffffffffffff166106aa611368565b73ffffffffffffffffffffffffffffffffffffffff1614610700576040517f08c379a00000000000000000000000000000000000000000000000000000000081526004016106f790612874565b60405180910390fd5b610709816113bf565b61078881600067ffffffffffffffff81111561074e577f4e487b7100000000000000000000000000000000000000000000000000000000600052604160045260246000fd5b6040519080825280601f01601f1916602001820160405280156107805781602001600182028036833780820191505090505b50600061143e565b50565b600061082d610798610f11565b8484603460006107a6610f11565b73ffffffffffffffffffffffffffffffffffffffff1673ffffffffffffffffffffffffffffffffffffffff16815260200190815260200160002060008873ffffffffffffffffffffffffffffffffffffffff1673ffffffffffffffffffffffffffffffffffffffff168152602001908152602001600020546108289190612a72565b610f19565b6001905092915050565b7f000000000000000000000000000000000000000000000000000000000000000073ffffffffffffffffffffffffffffffffffffffff163073ffffffffffffffffffffffffffffffffffffffff1614156108c6576040517f08c379a00000000000000000000000000000000000000000000000000000000081526004016108bd90612834565b60405180910390fd5b7f000000000000000000000000000000000000000000000000000000000000000073ffffffffffffffffffffffffffffffffffffffff16610905611368565b73ffffffffffffffffffffffffffffffffffffffff161461095b576040517f08c379a000000000000000000000000000000000000000000000000000000000815260040161095290612874565b60405180910390fd5b610964826113bf565b6109708282600161143e565b5050565b6000603360008373ffffffffffffffffffffffffffffffffffffffff1673ffffffffffffffffffffffffffffffffffffffff168152602001908152602001600020549050919050565b6109c5610f11565b73ffffffffffffffffffffffffffffffffffffffff166109e3610bcd565b73ffffffffffffffffffffffffffffffffffffffff1614610a39576040517f08c379a0000000000000000000000000000000000000000000000000000000008152600401610a30906128f4565b60405180910390fd5b610a43600061160f565b565b600060019054906101000a900460ff1680610a6b575060008054906101000a900460ff16155b610aaa576040517f08c379a0000000000000000000000000000000000000000000000000000000008152600401610aa190612894565b60405180910390fd5b60008060019054906101000a900460ff161590508015610afa576001600060016101000a81548160ff02191690831515021790555060016000806101000a81548160ff0219169083151502179055505b610b6e6040518060400160405280600881526020017f74783078313131390000000000000000000000000000000000000000000000008152506040518060400160405280600481526020017f74787878000000000000000000000000000000000000000000000000000000008152506116d5565b610b766117c2565b610b7e6118ab565b610ba933610b8a6105d3565b600a610b969190612b1b565b62989680610ba49190612c39565b611994565b8015610bca5760008060016101000a81548160ff0219169083151502179055505b50565b6000606560009054906101000a900473ffffffffffffffffffffffffffffffffffffffff16905090565b606060378054610c0690612d2a565b80601f0160208091040260200160405190810160405280929190818152602001828054610c3290612d2a565b8015610c7f5780601f10610c5457610100808354040283529160200191610c7f565b820191906000526020600020905b815481529060010190602001808311610c6257829003601f168201915b5050505050905090565b60008060346000610c98610f11565b73ffffffffffffffffffffffffffffffffffffffff1673ffffffffffffffffffffffffffffffffffffffff16815260200190815260200160002060008573ffffffffffffffffffffffffffffffffffffffff1673ffffffffffffffffffffffffffffffffffffffff16815260200190815260200160002054905082811015610d55576040517f08c379a0000000000000000000000000000000000000000000000000000000008152600401610d4c90612974565b60405180910390fd5b610d69610d60610f11565b85858403610f19565b600191505092915050565b6000610d88610d81610f11565b84846110e4565b6001905092915050565b6000603460008473ffffffffffffffffffffffffffffffffffffffff1673ffffffffffffffffffffffffffffffffffffffff16815260200190815260200160002060008373ffffffffffffffffffffffffffffffffffffffff1673ffffffffffffffffffffffffffffffffffffffff16815260200190815260200160002054905092915050565b610e21610f11565b73ffffffffffffffffffffffffffffffffffffffff16610e3f610bcd565b73ffffffffffffffffffffffffffffffffffffffff1614610e95576040517f08c379a0000000000000000000000000000000000000000000000000000000008152600401610e8c906128f4565b60405180910390fd5b600073ffffffffffffffffffffffffffffffffffffffff168173ffffffffffffffffffffffffffffffffffffffff161415610f05576040517f08c379a0000000000000000000000000000000000000000000000000000000008152600401610efc906127f4565b60405180910390fd5b610f0e8161160f565b50565b600033905090565b600073ffffffffffffffffffffffffffffffffffffffff168373ffffffffffffffffffffffffffffffffffffffff161415610f89576040517f08c379a0000000000000000000000000000000000000000000000000000000008152600401610f8090612954565b60405180910390fd5b600073ffffffffffffffffffffffffffffffffffffffff168273ffffffffffffffffffffffffffffffffffffffff161415610ff9576040517f08c379a0000000000000000000000000000000000000000000000000000000008152600401610ff090612814565b60405180910390fd5b80603460008573ffffffffffffffffffffffffffffffffffffffff1673ffffffffffffffffffffffffffffffffffffffff16815260200190815260200160002060008473ffffffffffffffffffffffffffffffffffffffff1673ffffffffffffffffffffffffffffffffffffffff168152602001908152602001600020819055508173ffffffffffffffffffffffffffffffffffffffff168373ffffffffffffffffffffffffffffffffffffffff167f8c5be1e5ebec7d5bd14f71427d1e84f3dd0314c0f7b2291e5b200ac8c7c3b925836040516110d791906129b4565b60405180910390a3505050565b600073ffffffffffffffffffffffffffffffffffffffff168373ffffffffffffffffffffffffffffffffffffffff161415611154576040517f08c379a000000000000000000000000000000000000000000000000000000000815260040161114b90612934565b60405180910390fd5b600073ffffffffffffffffffffffffffffffffffffffff168273ffffffffffffffffffffffffffffffffffffffff1614156111c4576040517f08c379a00000000000000000000000000000000000000000000000000000000081526004016111bb906127b4565b60405180910390fd5b6111cf838383611af5565b6000603360008573ffffffffffffffffffffffffffffffffffffffff1673ffffffffffffffffffffffffffffffffffffffff16815260200190815260200160002054905081811015611256576040517f08c379a000000000000000000000000000000000000000000000000000000000815260040161124d90612854565b60405180910390fd5b818103603360008673ffffffffffffffffffffffffffffffffffffffff1673ffffffffffffffffffffffffffffffffffffffff1681526020019081526020016000208190555081603360008573ffffffffffffffffffffffffffffffffffffffff1673ffffffffffffffffffffffffffffffffffffffff16815260200190815260200160002060008282546112eb9190612a72565b925050819055508273ffffffffffffffffffffffffffffffffffffffff168473ffffffffffffffffffffffffffffffffffffffff167fddf252ad1be2c89b69c2b068fc378daa952ba7f163c4a11628f55a4df523b3ef8460405161134f91906129b4565b60405180910390a3611362848484611afa565b50505050565b60006113967f360894a13ba1a3210667c828492db98dca3e2076cc3735a920a3ca505d382bbc60001b611aff565b60000160009054906101000a900473ffffffffffffffffffffffffffffffffffffffff16905090565b6113c7610f11565b73ffffffffffffffffffffffffffffffffffffffff166113e5610bcd565b73ffffffffffffffffffffffffffffffffffffffff161461143b576040517f08c379a0000000000000000000000000000000000000000000000000000000008152600401611432906128f4565b60405180910390fd5b50565b6000611448611368565b905061145384611b09565b6000835111806114605750815b156114715761146f8484611bc2565b505b600061149f7f4910fdfa16fed3260ed0e7147f7cc6da11a60208b5b9406d12a635614ffd914360001b611ca6565b90508060000160009054906101000a900460ff166116085760018160000160006101000a81548160ff02191690831515021790555061156b85836040516024016114e9919061275c565b6040516020818303038152906040527f3659cfe6000000000000000000000000000000000000000000000000000000007bffffffffffffffffffffffffffffffffffffffffffffffffffffffff19166020820180517bffffffffffffffffffffffffffffffffffffffffffffffffffffffff8381831617835250505050611bc2565b5060008160000160006101000a81548160ff021916908315150217905550611591611368565b73ffffffffffffffffffffffffffffffffffffffff168273ffffffffffffffffffffffffffffffffffffffff16146115fe576040517f08c379a00000000000000000000000000000000000000000000000000000000081526004016115f5906127d4565b60405180910390fd5b61160785611cb0565b5b5050505050565b6000606560009054906101000a900473ffffffffffffffffffffffffffffffffffffffff16905081606560006101000a81548173ffffffffffffffffffffffffffffffffffffffff021916908373ffffffffffffffffffffffffffffffffffffffff1602179055508173ffffffffffffffffffffffffffffffffffffffff168173ffffffffffffffffffffffffffffffffffffffff167f8be0079c531659141344cd1fd0a4f28419497f9722a3daafe3b4186f6b6457e060405160405180910390a35050565b600060019054906101000a900460ff16806116fb575060008054906101000a900460ff16155b61173a576040517f08c379a000000000000000000000000000000000000000000000000000000000815260040161173190612894565b60405180910390fd5b60008060019054906101000a900460ff16159050801561178a576001600060016101000a81548160ff02191690831515021790555060016000806101000a81548160ff0219169083151502179055505b611792611cff565b61179c8383611dd8565b80156117bd5760008060016101000a81548160ff0219169083151502179055505b505050565b600060019054906101000a900460ff16806117e8575060008054906101000a900460ff16155b611827576040517f08c379a000000000000000000000000000000000000000000000000000000000815260040161181e90612894565b60405180910390fd5b60008060019054906101000a900460ff161590508015611877576001600060016101000a81548160ff02191690831515021790555060016000806101000a81548160ff0219169083151502179055505b61187f611cff565b611887611ee1565b80156118a85760008060016101000a81548160ff0219169083151502179055505b50565b600060019054906101000a900460ff16806118d1575060008054906101000a900460ff16155b611910576040517f08c379a000000000000000000000000000000000000000000000000000000000815260040161190790612894565b60405180910390fd5b60008060019054906101000a900460ff161590508015611960576001600060016101000a81548160ff02191690831515021790555060016000806101000a81548160ff0219169083151502179055505b611968611fca565b6119706120a3565b80156119915760008060016101000a81548160ff0219169083151502179055505b50565b600073ffffffffffffffffffffffffffffffffffffffff168273ffffffffffffffffffffffffffffffffffffffff161415611a04576040517f08c379a00000000000000000000000000000000000000000000000000000000081526004016119fb90612994565b60405180910390fd5b611a1060008383611af5565b8060356000828254611a229190612a72565b9250508190555080603360008473ffffffffffffffffffffffffffffffffffffffff1673ffffffffffffffffffffffffffffffffffffffff1681526020019081526020016000206000828254611a789190612a72565b925050819055508173ffffffffffffffffffffffffffffffffffffffff16600073ffffffffffffffffffffffffffffffffffffffff167fddf252ad1be2c89b69c2b068fc378daa952ba7f163c4a11628f55a4df523b3ef83604051611add91906129b4565b60405180910390a3611af160008383611afa565b5050565b505050565b505050565b6000819050919050565b611b128161217c565b611b51576040517f08c379a0000000000000000000000000000000000000000000000000000000008152600401611b48906128b4565b60405180910390fd5b80611b7e7f360894a13ba1a3210667c828492db98dca3e2076cc3735a920a3ca505d382bbc60001b611aff565b60000160006101000a81548173ffffffffffffffffffffffffffffffffffffffff021916908373ffffffffffffffffffffffffffffffffffffffff16021790555050565b6060611bcd8361217c565b611c0c576040517f08c379a0000000000000000000000000000000000000000000000000000000008152600401611c0390612914565b60405180910390fd5b6000808473ffffffffffffffffffffffffffffffffffffffff1684604051611c349190612745565b600060405180830381855af49150503d8060008114611c6f576040519150601f19603f3d011682016040523d82523d6000602084013e611c74565b606091505b5091509150611c9c828260405180606001604052806027815260200161330b6027913961218f565b9250505092915050565b6000819050919050565b611cb981611b09565b8073ffffffffffffffffffffffffffffffffffffffff167fbc7cd75a20ee27fd9adebab32041f755214dbc6bffa90cc0225b39da2e5c2d3b60405160405180910390a250565b600060019054906101000a900460ff1680611d25575060008054906101000a900460ff16155b611d64576040517f08c379a0000000000000000000000000000000000000000000000000000000008152600401611d5b90612894565b60405180910390fd5b60008060019054906101000a900460ff161590508015611db4576001600060016101000a81548160ff02191690831515021790555060016000806101000a81548160ff0219169083151502179055505b8015611dd55760008060016101000a81548160ff0219169083151502179055505b50565b600060019054906101000a900460ff1680611dfe575060008054906101000a900460ff16155b611e3d576040517f08c379a0000000000000000000000000000000000000000000000000000000008152600401611e3490612894565b60405180910390fd5b60008060019054906101000a900460ff161590508015611e8d576001600060016101000a81548160ff02191690831515021790555060016000806101000a81548160ff0219169083151502179055505b8260369080519060200190611ea39291906121f6565b508160379080519060200190611eba9291906121f6565b508015611edc5760008060016101000a81548160ff0219169083151502179055505b505050565b600060019054906101000a900460ff1680611f07575060008054906101000a900460ff16155b611f46576040517f08c379a0000000000000000000000000000000000000000000000000000000008152600401611f3d90612894565b60405180910390fd5b60008060019054906101000a900460ff161590508015611f96576001600060016101000a81548160ff02191690831515021790555060016000806101000a81548160ff0219169083151502179055505b611fa6611fa1610f11565b61160f565b8015611fc75760008060016101000a81548160ff0219169083151502179055505b50565b600060019054906101000a900460ff1680611ff0575060008054906101000a900460ff16155b61202f576040517f08c379a000000000000000000000000000000000000000000000000000000000815260040161202690612894565b60405180910390fd5b60008060019054906101000a900460ff16159050801561207f576001600060016101000a81548160ff02191690831515021790555060016000806101000a81548160ff0219169083151502179055505b80156120a05760008060016101000a81548160ff0219169083151502179055505b50565b600060019054906101000a900460ff16806120c9575060008054906101000a900460ff16155b612108576040517f08c379a00000000000000000000000000000000000000000000000000000000081526004016120ff90612894565b60405180910390fd5b60008060019054906101000a900460ff161590508015612158576001600060016101000a81548160ff02191690831515021790555060016000806101000a81548160ff0219169083151502179055505b80156121795760008060016101000a81548160ff0219169083151502179055505b50565b600080823b905060008111915050919050565b6060831561219f578290506121ef565b6000835111156121b25782518084602001fd5b816040517f08c379a00000000000000000000000000000000000000000000000000000000081526004016121e69190612792565b60405180910390fd5b9392505050565b82805461220290612d2a565b90600052602060002090601f016020900481019282612224576000855561226b565b82601f1061223d57805160ff191683800117855561226b565b8280016001018555821561226b579182015b8281111561226a57825182559160200191906001019061224f565b5b509050612278919061227c565b5090565b5b8082111561229557600081600090555060010161227d565b5090565b60006122ac6122a784612a0f565b6129ea565b9050828152602081018484840111156122c457600080fd5b6122cf848285612ce8565b509392505050565b6000813590506122e6816132dc565b92915050565b600082601f8301126122fd57600080fd5b813561230d848260208601612299565b91505092915050565b600081359050612325816132f3565b92915050565b60006020828403121561233d57600080fd5b600061234b848285016122d7565b91505092915050565b6000806040838503121561236757600080fd5b6000612375858286016122d7565b9250506020612386858286016122d7565b9150509250929050565b6000806000606084860312156123a557600080fd5b60006123b3868287016122d7565b93505060206123c4868287016122d7565b92505060406123d586828701612316565b9150509250925092565b600080604083850312156123f257600080fd5b6000612400858286016122d7565b925050602083013567ffffffffffffffff81111561241d57600080fd5b612429858286016122ec565b9150509250929050565b6000806040838503121561244657600080fd5b6000612454858286016122d7565b925050602061246585828601612316565b9150509250929050565b61247881612c93565b82525050565b61248781612ca5565b82525050565b600061249882612a40565b6124a28185612a56565b93506124b2818560208601612cf7565b80840191505092915050565b60006124c982612a4b565b6124d38185612a61565b93506124e3818560208601612cf7565b6124ec81612e1a565b840191505092915050565b6000612504602383612a61565b915061250f82612e38565b604082019050919050565b6000612527602f83612a61565b915061253282612e87565b604082019050919050565b600061254a602683612a61565b915061255582612ed6565b604082019050919050565b600061256d602283612a61565b915061257882612f25565b604082019050919050565b6000612590602c83612a61565b915061259b82612f74565b604082019050919050565b60006125b3602683612a61565b91506125be82612fc3565b604082019050919050565b60006125d6602c83612a61565b91506125e182613012565b604082019050919050565b60006125f9602e83612a61565b915061260482613061565b604082019050919050565b600061261c602d83612a61565b9150612627826130b0565b604082019050919050565b600061263f602883612a61565b915061264a826130ff565b604082019050919050565b6000612662602083612a61565b915061266d8261314e565b602082019050919050565b6000612685602683612a61565b915061269082613177565b604082019050919050565b60006126a8602583612a61565b91506126b3826131c6565b604082019050919050565b60006126cb602483612a61565b91506126d682613215565b604082019050919050565b60006126ee602583612a61565b91506126f982613264565b604082019050919050565b6000612711601f83612a61565b915061271c826132b3565b602082019050919050565b61273081612cd1565b82525050565b61273f81612cdb565b82525050565b6000612751828461248d565b915081905092915050565b6000602082019050612771600083018461246f565b92915050565b600060208201905061278c600083018461247e565b92915050565b600060208201905081810360008301526127ac81846124be565b905092915050565b600060208201905081810360008301526127cd816124f7565b9050919050565b600060208201905081810360008301526127ed8161251a565b9050919050565b6000602082019050818103600083015261280d8161253d565b9050919050565b6000602082019050818103600083015261282d81612560565b9050919050565b6000602082019050818103600083015261284d81612583565b9050919050565b6000602082019050818103600083015261286d816125a6565b9050919050565b6000602082019050818103600083015261288d816125c9565b9050919050565b600060208201905081810360008301526128ad816125ec565b9050919050565b600060208201905081810360008301526128cd8161260f565b9050919050565b600060208201905081810360008301526128ed81612632565b9050919050565b6000602082019050818103600083015261290d81612655565b9050919050565b6000602082019050818103600083015261292d81612678565b9050919050565b6000602082019050818103600083015261294d8161269b565b9050919050565b6000602082019050818103600083015261296d816126be565b9050919050565b6000602082019050818103600083015261298d816126e1565b9050919050565b600060208201905081810360008301526129ad81612704565b9050919050565b60006020820190506129c96000830184612727565b92915050565b60006020820190506129e46000830184612736565b92915050565b60006129f4612a05565b9050612a008282612d5c565b919050565b6000604051905090565b600067ffffffffffffffff821115612a2a57612a29612deb565b5b612a3382612e1a565b9050602081019050919050565b600081519050919050565b600081519050919050565b600081905092915050565b600082825260208201905092915050565b6000612a7d82612cd1565b9150612a8883612cd1565b9250827fffffffffffffffffffffffffffffffffffffffffffffffffffffffffffffffff03821115612abd57612abc612d8d565b5b828201905092915050565b6000808291508390505b6001851115612b1257808604811115612aee57612aed612d8d565b5b6001851615612afd5780820291505b8081029050612b0b85612e2b565b9450612ad2565b94509492505050565b6000612b2682612cd1565b9150612b3183612cdb565b9250612b5e7fffffffffffffffffffffffffffffffffffffffffffffffffffffffffffffffff8484612b66565b905092915050565b600082612b765760019050612c32565b81612b845760009050612c32565b8160018114612b9a5760028114612ba457612bd3565b6001915050612c32565b60ff841115612bb657612bb5612d8d565b5b8360020a915084821115612bcd57612bcc612d8d565b5b50612c32565b5060208310610133831016604e8410600b8410161715612c085782820a905083811115612c0357612c02612d8d565b5b612c32565b612c158484846001612ac8565b92509050818404811115612c2c57612c2b612d8d565b5b81810290505b9392505050565b6000612c4482612cd1565b9150612c4f83612cd1565b9250817fffffffffffffffffffffffffffffffffffffffffffffffffffffffffffffffff0483118215151615612c8857612c87612d8d565b5b828202905092915050565b6000612c9e82612cb1565b9050919050565b60008115159050919050565b600073ffffffffffffffffffffffffffffffffffffffff82169050919050565b6000819050919050565b600060ff82169050919050565b82818337600083830152505050565b60005b83811015612d15578082015181840152602081019050612cfa565b83811115612d24576000848401525b50505050565b60006002820490506001821680612d4257607f821691505b60208210811415612d5657612d55612dbc565b5b50919050565b612d6582612e1a565b810181811067ffffffffffffffff82111715612d8457612d83612deb565b5b80604052505050565b7f4e487b7100000000000000000000000000000000000000000000000000000000600052601160045260246000fd5b7f4e487b7100000000000000000000000000000000000000000000000000000000600052602260045260246000fd5b7f4e487b7100000000000000000000000000000000000000000000000000000000600052604160045260246000fd5b6000601f19601f8301169050919050565b60008160011c9050919050565b7f45524332303a207472616e7366657220746f20746865207a65726f206164647260008201527f6573730000000000000000000000000000000000000000000000000000000000602082015250565b7f45524331393637557067726164653a207570677261646520627265616b73206660008201527f7572746865722075706772616465730000000000000000000000000000000000602082015250565b7f4f776e61626c653a206e6577206f776e657220697320746865207a65726f206160008201527f6464726573730000000000000000000000000000000000000000000000000000602082015250565b7f45524332303a20617070726f766520746f20746865207a65726f20616464726560008201527f7373000000000000000000000000000000000000000000000000000000000000602082015250565b7f46756e6374696f6e206d7573742062652063616c6c6564207468726f7567682060008201527f64656c656761746563616c6c0000000000000000000000000000000000000000602082015250565b7f45524332303a207472616e7366657220616d6f756e742065786365656473206260008201527f616c616e63650000000000000000000000000000000000000000000000000000602082015250565b7f46756e6374696f6e206d7573742062652063616c6c6564207468726f7567682060008201527f6163746976652070726f78790000000000000000000000000000000000000000602082015250565b7f496e697469616c697a61626c653a20636f6e747261637420697320616c72656160008201527f647920696e697469616c697a6564000000000000000000000000000000000000602082015250565b7f455243313936373a206e657720696d706c656d656e746174696f6e206973206e60008201527f6f74206120636f6e747261637400000000000000000000000000000000000000602082015250565b7f45524332303a207472616e7366657220616d6f756e742065786365656473206160008201527f6c6c6f77616e6365000000000000000000000000000000000000000000000000602082015250565b7f4f776e61626c653a2063616c6c6572206973206e6f7420746865206f776e6572600082015250565b7f416464726573733a2064656c65676174652063616c6c20746f206e6f6e2d636f60008201527f6e74726163740000000000000000000000000000000000000000000000000000602082015250565b7f45524332303a207472616e736665722066726f6d20746865207a65726f20616460008201527f6472657373000000000000000000000000000000000000000000000000000000602082015250565b7f45524332303a20617070726f76652066726f6d20746865207a65726f2061646460008201527f7265737300000000000000000000000000000000000000000000000000000000602082015250565b7f45524332303a2064656372656173656420616c6c6f77616e63652062656c6f7760008201527f207a65726f000000000000000000000000000000000000000000000000000000602082015250565b7f45524332303a206d696e7420746f20746865207a65726f206164647265737300600082015250565b6132e581612c93565b81146132f057600080fd5b50565b6132fc81612cd1565b811461330757600080fd5b5056fe416464726573733a206c6f772d6c6576656c2064656c65676174652063616c6c206661696c6564a26469706673582212206e0793a06fb9db51ed18b0e94ef1217edc0aaa0a26ada02ad8108f284c5bc23364736f6c63430008030033",
  "linkReferences": {},
  "deployedLinkReferences": {}
}